{"abi":[{"type":"constructor","inputs":[],"stateMutability":"nonpayable"},{"type":"receive","stateMutability":"payable"},{"type":"function","name":"addQuiz","inputs":[{"name":"q","type":"tuple","internalType":"struct Quiz.Quiz_item","components":[{"name":"id","type":"uint256","internalType":"uint256"},{"name":"question","type":"string","internalType":"string"},{"name":"answer","type":"string","internalType":"string"},{"name":"min_bet","type":"uint256","internalType":"uint256"},{"name":"max_bet","type":"uint256","internalType":"uint256"}]}],"outputs":[{"name":"","type":"uint256","internalType":"uint256"}],"stateMutability":"nonpayable"},{"type":"function","name":"betToPlay","inputs":[{"name":"quizId","type":"uint256","internalType":"uint256"}],"outputs":[],"stateMutability":"payable"},{"type":"function","name":"bets","inputs":[{"name":"","type":"uint256","internalType":"uint256"},{"name":"","type":"address","internalType":"address"}],"outputs":[{"name":"","type":"uint256","internalType":"uint256"}],"stateMutability":"view"},{"type":"function","name":"claim","inputs":[],"outputs":[],"stateMutability":"nonpayable"},{"type":"function","name":"getAnswer","inputs":[{"name":"quizId","type":"uint256","internalType":"uint256"}],"outputs":[{"name":"","type":"string","internalType":"string"}],"stateMutability":"view"},{"type":"function","name":"getQuiz","inputs":[{"name":"quizId","type":"uint256","internalType":"uint256"}],"outputs":[{"name":"","type":"tuple","internalType":"struct Quiz.Quiz_item","components":[{"name":"id","type":"uint256","internalType":"uint256"},{"name":"question","type":"string","internalType":"string"},{"name":"answer","type":"string","internalType":"string"},{"name":"min_bet","type":"uint256","internalType":"uint256"},{"name":"max_bet","type":"uint256","internalType":"uint256"}]}],"stateMutability":"view"},{"type":"function","name":"getQuizNum","inputs":[],"outputs":[{"name":"","type":"uint256","internalType":"uint256"}],"stateMutability":"view"},{"type":"function","name":"owner","inputs":[],"outputs":[{"name":"","type":"address","internalType":"address"}],"stateMutability":"view"},{"type":"function","name":"qs","inputs":[{"name":"","type":"uint256","internalType":"uint256"}],"outputs":[{"name":"id","type":"uint256","internalType":"uint256"},{"name":"question","type":"string","internalType":"string"},{"name":"answer","type":"string","internalType":"string"},{"name":"min_bet","type":"uint256","internalType":"uint256"},{"name":"max_bet","type":"uint256","internalType":"uint256"}],"stateMutability":"view"},{"type":"function","name":"solveQuiz","inputs":[{"name":"quizId","type":"uint256","internalType":"uint256"},{"name":"ans","type":"string","internalType":"string"}],"outputs":[{"name":"","type":"bool","internalType":"bool"}],"stateMutability":"nonpayable"},{"type":"function","name":"to_give","inputs":[{"name":"","type":"address","internalType":"address"}],"outputs":[{"name":"","type":"uint256","internalType":"uint256"}],"stateMutability":"view"},{"type":"function","name":"vault_balance","inputs":[],"outputs":[{"name":"","type":"uint256","internalType":"uint256"}],"stateMutability":"view"}],"bytecode":{"object":"0x608060405234801561000f575f5ffd5b505f6003819055506100466040518060a001604052805f815260200160608152602001606081526020015f81526020015f81525090565b60018082526040805180820182526005815264312b313d3f60d81b6020808301919091528085019190915281518083018352928352601960f91b90830152820152670de0b6b3a76400006060820152671bc16d674ec800006080820152600280546001600160a01b031916331790556100be816100c5565b505061039f565b6002545f906001600160a01b031633146101115760405162461bcd60e51b81526020600482015260086024820152676e6f742073616d6560c01b60448201526064015b60405180910390fd5b6003548251116101635760405162461bcd60e51b815260206004820152601760248201527f496e76616c696420616464696e67205175697a204944210000000000000000006044820152606401610108565b600580546001810182555f829052835191027f036b6384b5eca791c62761152d0c79bb0604c104a5fb6f4eb0703f3154bb3db0810191825560208401518492917f036b6384b5eca791c62761152d0c79bb0604c104a5fb6f4eb0703f3154bb3db101906101d090826102c1565b50604082015160028201906101e590826102c1565b506060820151816003015560808201518160040155505060035f815461020a9061037b565b909155506003545f541015610224575f8054600101815580525b505190565b634e487b7160e01b5f52604160045260245ffd5b600181811c9082168061025157607f821691505b60208210810361026f57634e487b7160e01b5f52602260045260245ffd5b50919050565b601f8211156102bc57805f5260205f20601f840160051c8101602085101561029a5750805b601f840160051c820191505b818110156102b9575f81556001016102a6565b50505b505050565b81516001600160401b038111156102da576102da610229565b6102ee816102e8845461023d565b84610275565b6020601f821160018114610320575f83156103095750848201515b5f19600385901b1c1916600184901b1784556102b9565b5f84815260208120601f198516915b8281101561034f578785015182556020948501946001909201910161032f565b508482101561036c57868401515f19600387901b60f8161c191681555b50505050600190811b01905550565b5f6001820161039857634e487b7160e01b5f52601160045260245ffd5b5060010190565b611568806103ac5f395ff3fe6080604052600436106100a8575f3560e01c8063b5ab58dc11610062578063b5ab58dc146101ad578063c0da916f146101d9578063c6447e83146101ed578063cb1369251461021d578063f101b3f114610248578063f644b3bb14610267575f5ffd5b80634e71d92d146100ca57806354c63f82146100e05780637487361f146100f35780638da5cb5b146101275780638f7b09611461015e578063a3f7e09614610181575f5ffd5b366100c6573460045f8282546100be9190611069565b925050819055005b5f5ffd5b3480156100d5575f5ffd5b506100de610286565b005b6100de6100ee36600461107c565b61031b565b3480156100fe575f5ffd5b5061011261010d36600461115b565b610649565b60405190151581526020015b60405180910390f35b348015610132575f5ffd5b50600254610146906001600160a01b031681565b6040516001600160a01b03909116815260200161011e565b348015610169575f5ffd5b5061017360045481565b60405190815260200161011e565b34801561018c575f5ffd5b506101a061019b36600461107c565b610a77565b60405161011e91906111cd565b3480156101b8575f5ffd5b506101cc6101c736600461107c565b610c7a565b60405161011e9190611230565b3480156101e4575f5ffd5b50600354610173565b3480156101f8575f5ffd5b5061020c61020736600461107c565b610d80565b60405161011e959493929190611249565b348015610228575f5ffd5b506101736102373660046112a3565b60016020525f908152604090205481565b348015610253575f5ffd5b506101736102623660046112bc565b610ecc565b348015610272575f5ffd5b50610173610281366004611373565b61102b565b335f90815260016020526040902054158015906102b35750335f9081526001602052604090205460045410155b1561031957335f81815260016020526040808220549051909181818185875af1925050503d805f8114610301576040519150601f19603f3d011682016040523d82523d5f602084013e610306565b606091505b5050335f90815260016020526040812055505b565b6003548111156103655760405162461bcd60e51b815260206004820152601060248201526f496e76616c6964205175697a2049442160801b60448201526064015b60405180910390fd5b5f8061037260018461139d565b81548110610382576103826113b0565b5f918252602080832033845290910190526040812054915060056103a760018561139d565b815481106103b7576103b76113b0565b905f5260205f2090600502016040518060a00160405290815f82015481526020016001820180546103e7906113c4565b80601f0160208091040260200160405190810160405280929190818152602001828054610413906113c4565b801561045e5780601f106104355761010080835404028352916020019161045e565b820191905f5260205f20905b81548152906001019060200180831161044157829003601f168201915b50505050508152602001600282018054610477906113c4565b80601f01602080910402602001604051908101604052809291908181526020018280546104a3906113c4565b80156104ee5780601f106104c5576101008083540402835291602001916104ee565b820191905f5260205f20905b8154815290600101906020018083116104d157829003601f168201915b505050505081526020016003820154815260200160048201548152505090508060800151348361051e9190611069565b11156105615760405162461bcd60e51b8152602060048201526012602482015271446563726561736520796f7572206265742160701b604482015260640161035c565b80606001513410156105a55760405162461bcd60e51b815260206004820152600d60248201526c4d6f72652062657474696e672160981b604482015260640161035c565b6004546105b23484611069565b6105bd9060026113fc565b11156105fd5760405162461bcd60e51b815260206004820152600f60248201526e131858dac81bd98811195c1bdcda5d608a1b604482015260640161035c565b345f61060a60018661139d565b8154811061061a5761061a6113b0565b5f9182526020808320338452909101905260408120805490919061063f908490611069565b9091555050505050565b5f60035483111561068f5760405162461bcd60e51b815260206004820152601060248201526f496e76616c6964205175697a2049442160801b604482015260640161035c565b5f8061069c60018661139d565b815481106106ac576106ac6113b0565b5f918252602080832033845290910190526040902054116106fa5760405162461bcd60e51b8152602060048201526008602482015267506c7a206265742160c01b604482015260640161035c565b5f600561070860018661139d565b81548110610718576107186113b0565b905f5260205f2090600502016040518060a00160405290815f8201548152602001600182018054610748906113c4565b80601f0160208091040260200160405190810160405280929190818152602001828054610774906113c4565b80156107bf5780601f10610796576101008083540402835291602001916107bf565b820191905f5260205f20905b8154815290600101906020018083116107a257829003601f168201915b505050505081526020016002820180546107d8906113c4565b80601f0160208091040260200160405190810160405280929190818152602001828054610804906113c4565b801561084f5780601f106108265761010080835404028352916020019161084f565b820191905f5260205f20905b81548152906001019060200180831161083257829003601f168201915b505050918352505060038201546020820152600490910154604091820152845190820151519192509080821461090b575f61088b60018861139d565b8154811061089b5761089b6113b0565b5f91825260208083203384529091019052604081205460048054919290916108c4908490611069565b909155505f9050806108d760018961139d565b815481106108e7576108e76113b0565b5f9182526020808320338452909101905260408120919091559350610a7192505050565b5f5b81811015610a0857818314158061096e575083604001518181518110610935576109356113b0565b602001015160f81c60f81b6001600160f81b03191686828151811061095c5761095c6113b0565b01602001516001600160f81b03191614155b15610a00575f61097f60018961139d565b8154811061098f5761098f6113b0565b5f91825260208083203384529091019052604081205460048054919290916109b8908490611069565b909155505f9050806109cb60018a61139d565b815481106109db576109db6113b0565b5f9182526020808320338452909101905260408120919091559450610a719350505050565b60010161090d565b505f610a1560018861139d565b81548110610a2557610a256113b0565b5f918252602080832033845290910190526040902054610a469060026113fc565b335f9081526001602052604081208054909190610a64908490611069565b9091555060019450505050505b92915050565b610aa66040518060a001604052805f815260200160608152602001606081526020015f81526020015f81525090565b600354821115610aef5760405162461bcd60e51b8152602060048201526014602482015273496e76616c696420676574205175697a2049442160601b604482015260640161035c565b5f6005610afd60018561139d565b81548110610b0d57610b0d6113b0565b905f5260205f2090600502016040518060a00160405290815f8201548152602001600182018054610b3d906113c4565b80601f0160208091040260200160405190810160405280929190818152602001828054610b69906113c4565b8015610bb45780601f10610b8b57610100808354040283529160200191610bb4565b820191905f5260205f20905b815481529060010190602001808311610b9757829003601f168201915b50505050508152602001600282018054610bcd906113c4565b80601f0160208091040260200160405190810160405280929190818152602001828054610bf9906113c4565b8015610c445780601f10610c1b57610100808354040283529160200191610c44565b820191905f5260205f20905b815481529060010190602001808311610c2757829003601f168201915b50505091835250506003820154602080830191909152600490920154604091820152805191820181525f82528201529392505050565b6002546060906001600160a01b03163314610cc65760405162461bcd60e51b815260206004820152600c60248201526b556e6174686f72697a65642160a01b604482015260640161035c565b6005610cd360018461139d565b81548110610ce357610ce36113b0565b905f5260205f2090600502016002018054610cfd906113c4565b80601f0160208091040260200160405190810160405280929190818152602001828054610d29906113c4565b8015610d745780601f10610d4b57610100808354040283529160200191610d74565b820191905f5260205f20905b815481529060010190602001808311610d5757829003601f168201915b50505050509050919050565b60058181548110610d8f575f80fd5b5f9182526020909120600590910201805460018201805491935090610db3906113c4565b80601f0160208091040260200160405190810160405280929190818152602001828054610ddf906113c4565b8015610e2a5780601f10610e0157610100808354040283529160200191610e2a565b820191905f5260205f20905b815481529060010190602001808311610e0d57829003601f168201915b505050505090806002018054610e3f906113c4565b80601f0160208091040260200160405190810160405280929190818152602001828054610e6b906113c4565b8015610eb65780601f10610e8d57610100808354040283529160200191610eb6565b820191905f5260205f20905b815481529060010190602001808311610e9957829003601f168201915b5050505050908060030154908060040154905085565b6002545f906001600160a01b03163314610f135760405162461bcd60e51b81526020600482015260086024820152676e6f742073616d6560c01b604482015260640161035c565b600354825111610f655760405162461bcd60e51b815260206004820152601760248201527f496e76616c696420616464696e67205175697a20494421000000000000000000604482015260640161035c565b600580546001810182555f829052835191027f036b6384b5eca791c62761152d0c79bb0604c104a5fb6f4eb0703f3154bb3db0810191825560208401518492917f036b6384b5eca791c62761152d0c79bb0604c104a5fb6f4eb0703f3154bb3db10190610fd2908261145f565b5060408201516002820190610fe7908261145f565b506060820151816003015560808201518160040155505060035f815461100c9061151a565b909155506003545f541015611026575f8054600101815580525b505190565b5f8281548110611039575f80fd5b905f5260205f2001602052805f5260405f205f91509150505481565b634e487b7160e01b5f52601160045260245ffd5b80820180821115610a7157610a71611055565b5f6020828403121561108c575f5ffd5b5035919050565b634e487b7160e01b5f52604160045260245ffd5b60405160a0810167ffffffffffffffff811182821017156110ca576110ca611093565b60405290565b5f82601f8301126110df575f5ffd5b813567ffffffffffffffff8111156110f9576110f9611093565b604051601f8201601f19908116603f0116810167ffffffffffffffff8111828210171561112857611128611093565b60405281815283820160200185101561113f575f5ffd5b816020850160208301375f918101602001919091529392505050565b5f5f6040838503121561116c575f5ffd5b82359150602083013567ffffffffffffffff811115611189575f5ffd5b611195858286016110d0565b9150509250929050565b5f81518084528060208401602086015e5f602082860101526020601f19601f83011685010191505092915050565b60208152815160208201525f602083015160a060408401526111f260c084018261119f565b90506040840151601f1984830301606085015261120f828261119f565b91505060608401516080840152608084015160a08401528091505092915050565b602081525f611242602083018461119f565b9392505050565b85815260a060208201525f61126160a083018761119f565b8281036040840152611273818761119f565b60608401959095525050608001529392505050565b80356001600160a01b038116811461129e575f5ffd5b919050565b5f602082840312156112b3575f5ffd5b61124282611288565b5f602082840312156112cc575f5ffd5b813567ffffffffffffffff8111156112e2575f5ffd5b820160a081850312156112f3575f5ffd5b6112fb6110a7565b81358152602082013567ffffffffffffffff811115611318575f5ffd5b611324868285016110d0565b602083015250604082013567ffffffffffffffff811115611343575f5ffd5b61134f868285016110d0565b60408301525060608281013590820152608091820135918101919091529392505050565b5f5f60408385031215611384575f5ffd5b8235915061139460208401611288565b90509250929050565b81810381811115610a7157610a71611055565b634e487b7160e01b5f52603260045260245ffd5b600181811c908216806113d857607f821691505b6020821081036113f657634e487b7160e01b5f52602260045260245ffd5b50919050565b8082028115828204841417610a7157610a71611055565b601f82111561145a57805f5260205f20601f840160051c810160208510156114385750805b601f840160051c820191505b81811015611457575f8155600101611444565b50505b505050565b815167ffffffffffffffff81111561147957611479611093565b61148d8161148784546113c4565b84611413565b6020601f8211600181146114bf575f83156114a85750848201515b5f19600385901b1c1916600184901b178455611457565b5f84815260208120601f198516915b828110156114ee57878501518255602094850194600190920191016114ce565b508482101561150b57868401515f19600387901b60f8161c191681555b50505050600190811b01905550565b5f6001820161152b5761152b611055565b506001019056fea26469706673582212205b9b9f9a4a9ac60fa496a172c77299cdc0fabb1fff132f82bb30d09a1de5185d64736f6c634300081c0033","linkReferences":{}},"methodIdentifiers":{"addQuiz((uint256,string,string,uint256,uint256))":"f101b3f1","betToPlay(uint256)":"54c63f82","bets(uint256,address)":"f644b3bb","claim()":"4e71d92d","getAnswer(uint256)":"b5ab58dc","getQuiz(uint256)":"a3f7e096","getQuizNum()":"c0da916f","owner()":"8da5cb5b","qs(uint256)":"c6447e83","solveQuiz(uint256,string)":"7487361f","to_give(address)":"cb136925","vault_balance()":"8f7b0961"},"id":18}