{"abi":[{"type":"constructor","inputs":[],"stateMutability":"nonpayable"},{"type":"receive","stateMutability":"payable"},{"type":"function","name":"addQuiz","inputs":[{"name":"q","type":"tuple","internalType":"struct Quiz.Quiz_item","components":[{"name":"id","type":"uint256","internalType":"uint256"},{"name":"question","type":"string","internalType":"string"},{"name":"answer","type":"string","internalType":"string"},{"name":"min_bet","type":"uint256","internalType":"uint256"},{"name":"max_bet","type":"uint256","internalType":"uint256"}]}],"outputs":[{"name":"","type":"uint256","internalType":"uint256"}],"stateMutability":"nonpayable"},{"type":"function","name":"betToPlay","inputs":[{"name":"quizId","type":"uint256","internalType":"uint256"}],"outputs":[{"name":"","type":"uint256","internalType":"uint256"}],"stateMutability":"payable"},{"type":"function","name":"bets","inputs":[{"name":"","type":"uint256","internalType":"uint256"},{"name":"","type":"address","internalType":"address"}],"outputs":[{"name":"","type":"uint256","internalType":"uint256"}],"stateMutability":"view"},{"type":"function","name":"claim","inputs":[],"outputs":[],"stateMutability":"nonpayable"},{"type":"function","name":"contributors","inputs":[{"name":"","type":"address","internalType":"address"}],"outputs":[{"name":"","type":"uint256","internalType":"uint256"}],"stateMutability":"view"},{"type":"function","name":"getAnswer","inputs":[{"name":"quizId","type":"uint256","internalType":"uint256"}],"outputs":[{"name":"","type":"string","internalType":"string"}],"stateMutability":"view"},{"type":"function","name":"getQuiz","inputs":[{"name":"quizId","type":"uint256","internalType":"uint256"}],"outputs":[{"name":"","type":"tuple","internalType":"struct Quiz.Quiz_item","components":[{"name":"id","type":"uint256","internalType":"uint256"},{"name":"question","type":"string","internalType":"string"},{"name":"answer","type":"string","internalType":"string"},{"name":"min_bet","type":"uint256","internalType":"uint256"},{"name":"max_bet","type":"uint256","internalType":"uint256"}]}],"stateMutability":"view"},{"type":"function","name":"getQuizNum","inputs":[],"outputs":[{"name":"","type":"uint256","internalType":"uint256"}],"stateMutability":"view"},{"type":"function","name":"owner","inputs":[],"outputs":[{"name":"","type":"address","internalType":"address"}],"stateMutability":"view"},{"type":"function","name":"qs","inputs":[{"name":"","type":"uint256","internalType":"uint256"}],"outputs":[{"name":"id","type":"uint256","internalType":"uint256"},{"name":"question","type":"string","internalType":"string"},{"name":"answer","type":"string","internalType":"string"},{"name":"min_bet","type":"uint256","internalType":"uint256"},{"name":"max_bet","type":"uint256","internalType":"uint256"}],"stateMutability":"view"},{"type":"function","name":"solveQuiz","inputs":[{"name":"quizId","type":"uint256","internalType":"uint256"},{"name":"ans","type":"string","internalType":"string"}],"outputs":[{"name":"","type":"bool","internalType":"bool"}],"stateMutability":"nonpayable"},{"type":"function","name":"vault_balance","inputs":[],"outputs":[{"name":"","type":"uint256","internalType":"uint256"}],"stateMutability":"view"}],"bytecode":{"object":"0x608060405234801561000f575f5ffd5b505f6003819055506100466040518060a001604052805f815260200160608152602001606081526020015f81526020015f81525090565b60018082526040805180820182526005815264312b313d3f60d81b6020808301919091528085019190915281518083018352928352601960f91b90830152820152670de0b6b3a76400006060820152671bc16d674ec800006080820152600280546001600160a01b031916331790556100be816100c5565b505061039f565b335f908152600160205260408120541515806100eb57506002546001600160a01b031633145b6101275760405162461bcd60e51b81526020600482015260086024820152676e6f742073616d6560c01b60448201526064015b60405180910390fd5b6003548251116101795760405162461bcd60e51b815260206004820152601760248201527f496e76616c696420616464696e67205175697a20494421000000000000000000604482015260640161011e565b600580546001810182555f829052835191027f036b6384b5eca791c62761152d0c79bb0604c104a5fb6f4eb0703f3154bb3db0810191825560208401518492917f036b6384b5eca791c62761152d0c79bb0604c104a5fb6f4eb0703f3154bb3db101906101e690826102c1565b50604082015160028201906101fb90826102c1565b506060820151816003015560808201518160040155505060035f81546102209061037b565b90915550505190565b634e487b7160e01b5f52604160045260245ffd5b600181811c9082168061025157607f821691505b60208210810361026f57634e487b7160e01b5f52602260045260245ffd5b50919050565b601f8211156102bc57805f5260205f20601f840160051c8101602085101561029a5750805b601f840160051c820191505b818110156102b9575f81556001016102a6565b50505b505050565b81516001600160401b038111156102da576102da610229565b6102ee816102e8845461023d565b84610275565b6020601f821160018114610320575f83156103095750848201515b5f19600385901b1c1916600184901b1784556102b9565b5f84815260208120601f198516915b8281101561034f578785015182556020948501946001909201910161032f565b508482101561036c57868401515f19600387901b60f8161c191681555b50505050600190811b01905550565b5f6001820161039857634e487b7160e01b5f52601160045260245ffd5b5060010190565b610ef2806103ac5f395ff3fe6080604052600436106100a8575f3560e01c8063a3f7e09611610062578063a3f7e096146101a1578063b5ab58dc146101cd578063c0da916f146101fa578063c6447e831461020e578063f101b3f11461023e578063f644b3bb1461025d575f5ffd5b80631f6d4942146100c65780634e71d92d1461010457806354c63f82146101115780637487361f146101245780638da5cb5b146101555780638f7b09611461018c575f5ffd5b366100c257335f9081526001602052604090203490819055005b5f5ffd5b3480156100d1575f5ffd5b506100f16100e0366004610a0b565b60016020525f908152604090205481565b6040519081526020015b60405180910390f35b34801561010f575f5ffd5b005b6100f161011f366004610a2b565b61027c565b34801561012f575f5ffd5b5061014561013e366004610b0a565b5f92915050565b60405190151581526020016100fb565b348015610160575f5ffd5b50600254610174906001600160a01b031681565b6040516001600160a01b0390911681526020016100fb565b348015610197575f5ffd5b506100f160045481565b3480156101ac575f5ffd5b506101c06101bb366004610a2b565b6104ad565b6040516100fb9190610b7c565b3480156101d8575f5ffd5b506101ed6101e7366004610a2b565b50606090565b6040516100fb9190610bdf565b348015610205575f5ffd5b506003546100f1565b348015610219575f5ffd5b5061022d610228366004610a2b565b6106b0565b6040516100fb959493929190610bf1565b348015610249575f5ffd5b506100f1610258366004610c30565b6107fc565b348015610268575f5ffd5b506100f1610277366004610ce7565b61095b565b5f6003548211156102c75760405162461bcd60e51b815260206004820152601060248201526f496e76616c6964205175697a2049442160801b60448201526064015b60405180910390fd5b5f80546003549091908210156102de57505f610313565b5f6102ea600186610d25565b815481106102fa576102fa610d3e565b5f91825260208083203384529091019052604090205490505b5f6005610321600187610d25565b8154811061033157610331610d3e565b905f5260205f2090600502016040518060a00160405290815f820154815260200160018201805461036190610d52565b80601f016020809104026020016040519081016040528092919081815260200182805461038d90610d52565b80156103d85780601f106103af576101008083540402835291602001916103d8565b820191905f5260205f20905b8154815290600101906020018083116103bb57829003601f168201915b505050505081526020016002820180546103f190610d52565b80601f016020809104026020016040519081016040528092919081815260200182805461041d90610d52565b80156104685780601f1061043f57610100808354040283529160200191610468565b820191905f5260205f20905b81548152906001019060200180831161044b57829003601f168201915b505050918352505060038201546020820152600490910154604090910152905061049a6104953484610d8a565b610985565b6104a43483610d8a565b95945050505050565b6104dc6040518060a001604052805f815260200160608152602001606081526020015f81526020015f81525090565b6003548211156105255760405162461bcd60e51b8152602060048201526014602482015273496e76616c696420676574205175697a2049442160601b60448201526064016102be565b5f6005610533600185610d25565b8154811061054357610543610d3e565b905f5260205f2090600502016040518060a00160405290815f820154815260200160018201805461057390610d52565b80601f016020809104026020016040519081016040528092919081815260200182805461059f90610d52565b80156105ea5780601f106105c1576101008083540402835291602001916105ea565b820191905f5260205f20905b8154815290600101906020018083116105cd57829003601f168201915b5050505050815260200160028201805461060390610d52565b80601f016020809104026020016040519081016040528092919081815260200182805461062f90610d52565b801561067a5780601f106106515761010080835404028352916020019161067a565b820191905f5260205f20905b81548152906001019060200180831161065d57829003601f168201915b50505091835250506003820154602080830191909152600490920154604091820152805191820181525f82528201529392505050565b600581815481106106bf575f80fd5b5f91825260209091206005909102018054600182018054919350906106e390610d52565b80601f016020809104026020016040519081016040528092919081815260200182805461070f90610d52565b801561075a5780601f106107315761010080835404028352916020019161075a565b820191905f5260205f20905b81548152906001019060200180831161073d57829003601f168201915b50505050509080600201805461076f90610d52565b80601f016020809104026020016040519081016040528092919081815260200182805461079b90610d52565b80156107e65780601f106107bd576101008083540402835291602001916107e6565b820191905f5260205f20905b8154815290600101906020018083116107c957829003601f168201915b5050505050908060030154908060040154905085565b335f9081526001602052604081205415158061082257506002546001600160a01b031633145b6108595760405162461bcd60e51b81526020600482015260086024820152676e6f742073616d6560c01b60448201526064016102be565b6003548251116108ab5760405162461bcd60e51b815260206004820152601760248201527f496e76616c696420616464696e67205175697a2049442100000000000000000060448201526064016102be565b600580546001810182555f829052835191027f036b6384b5eca791c62761152d0c79bb0604c104a5fb6f4eb0703f3154bb3db0810191825560208401518492917f036b6384b5eca791c62761152d0c79bb0604c104a5fb6f4eb0703f3154bb3db101906109189082610de9565b506040820151600282019061092d9082610de9565b506060820151816003015560808201518160040155505060035f815461095290610ea4565b90915550505190565b5f8281548110610969575f80fd5b905f5260205f2001602052805f5260405f205f91509150505481565b6109ca8160405160240161099b91815260200190565b60408051601f198184030181529190526020810180516001600160e01b031663f82c50f160e01b1790526109cd565b50565b6109ca815f6a636f6e736f6c652e6c6f6790505f5f835160208501845afa505050565b80356001600160a01b0381168114610a06575f5ffd5b919050565b5f60208284031215610a1b575f5ffd5b610a24826109f0565b9392505050565b5f60208284031215610a3b575f5ffd5b5035919050565b634e487b7160e01b5f52604160045260245ffd5b60405160a0810167ffffffffffffffff81118282101715610a7957610a79610a42565b60405290565b5f82601f830112610a8e575f5ffd5b813567ffffffffffffffff811115610aa857610aa8610a42565b604051601f8201601f19908116603f0116810167ffffffffffffffff81118282101715610ad757610ad7610a42565b604052818152838201602001851015610aee575f5ffd5b816020850160208301375f918101602001919091529392505050565b5f5f60408385031215610b1b575f5ffd5b82359150602083013567ffffffffffffffff811115610b38575f5ffd5b610b4485828601610a7f565b9150509250929050565b5f81518084528060208401602086015e5f602082860101526020601f19601f83011685010191505092915050565b60208152815160208201525f602083015160a06040840152610ba160c0840182610b4e565b90506040840151601f19848303016060850152610bbe8282610b4e565b91505060608401516080840152608084015160a08401528091505092915050565b602081525f610a246020830184610b4e565b85815260a060208201525f610c0960a0830187610b4e565b8281036040840152610c1b8187610b4e565b60608401959095525050608001529392505050565b5f60208284031215610c40575f5ffd5b813567ffffffffffffffff811115610c56575f5ffd5b820160a08185031215610c67575f5ffd5b610c6f610a56565b81358152602082013567ffffffffffffffff811115610c8c575f5ffd5b610c9886828501610a7f565b602083015250604082013567ffffffffffffffff811115610cb7575f5ffd5b610cc386828501610a7f565b60408301525060608281013590820152608091820135918101919091529392505050565b5f5f60408385031215610cf8575f5ffd5b82359150610d08602084016109f0565b90509250929050565b634e487b7160e01b5f52601160045260245ffd5b81810381811115610d3857610d38610d11565b92915050565b634e487b7160e01b5f52603260045260245ffd5b600181811c90821680610d6657607f821691505b602082108103610d8457634e487b7160e01b5f52602260045260245ffd5b50919050565b80820180821115610d3857610d38610d11565b601f821115610de457805f5260205f20601f840160051c81016020851015610dc25750805b601f840160051c820191505b81811015610de1575f8155600101610dce565b50505b505050565b815167ffffffffffffffff811115610e0357610e03610a42565b610e1781610e118454610d52565b84610d9d565b6020601f821160018114610e49575f8315610e325750848201515b5f19600385901b1c1916600184901b178455610de1565b5f84815260208120601f198516915b82811015610e785787850151825560209485019460019092019101610e58565b5084821015610e9557868401515f19600387901b60f8161c191681555b50505050600190811b01905550565b5f60018201610eb557610eb5610d11565b506001019056fea264697066735822122010d7c8427cde065ca6b2258713b41cba2eeff35ab0b5eb2b5e5b1273c2d16eb164736f6c634300081c0033","linkReferences":{}},"methodIdentifiers":{"addQuiz((uint256,string,string,uint256,uint256))":"f101b3f1","betToPlay(uint256)":"54c63f82","bets(uint256,address)":"f644b3bb","claim()":"4e71d92d","contributors(address)":"1f6d4942","getAnswer(uint256)":"b5ab58dc","getQuiz(uint256)":"a3f7e096","getQuizNum()":"c0da916f","owner()":"8da5cb5b","qs(uint256)":"c6447e83","solveQuiz(uint256,string)":"7487361f","vault_balance()":"8f7b0961"},"id":18}